:020000040800F2
:1000000000000320251E0008CD1C0008CF1C00089E
:10001000D11C0008D31C0008D51C000800000000FB
:10002000000000000000000000000000D71C0008D5
:10003000D91C000800000000DB1C0008DD1C0008C3
:10004000751E0008751E0008751E0008751E000844
:10005000751E0008751E0008751E0008751E000834
:10006000751E0008751E0008751E0008751E000824
:10007000751E0008751E0008751E0008751E000814
:10008000751E0008751E0008751E0008751E000804
:10009000751E0008751E0008751E0008751E0008F4
:1000A000751E0008751E0008751E0008751E0008E4
:1000B000751E0008751E0008751E0008751E0008D4
:1000C000751E0008751E0008751E0008751E0008C4
:1000D000751E0008E51C0008751E0008751E000846
:1000E000751E0008751E0008751E0008751E0008A4
:1000F000751E0008751E0008751E0008751E000894
:10010000751E0008751E0008751E0008751E000883
:10011000751E0008751E0008751E0008751E000873
:10012000751E0008751E0008F51C0008751E0008E5
:10013000751E0008751E0008751E0008751E000853
:10014000751E0008751E0008751E0008751E000843
:10015000751E0008751E0008751E0008751E000833
:10016000751E0008751E0008751E0008751E000823
:10017000751E0008751E0008751E000800000000AE
:10018000751E0008751E0008751E0008751E000803
:10019000751E0008751E0008751E0008751E0008F3
:0C01A0000000000000000000751E0008B8
:1001AC0010B5054C237833B9044B13B10448AFF3A5
:1001BC0000800123237010BD3401002000000000DA
:1001CC009437000808B5034B1BB103490348AFF340
:1001DC00008008BD000000003801002094370008A2
:1001EC0080F0004002E000BF81F0004142001FBFE0
:1001FC005FEA410392EA030F7FEA226C7FEA236CE9
:10020C006AD04FEA1262D2EB1363C1BFD2184140DD
:10021C0048404140B8BF5B42192B88BF704710F073
:10022C00004F40F4000020F07F4018BF404211F016
:10023C00004F41F4000121F07F4118BF494292EA7E
:10024C00030F3FD0A2F1010241FA03FC10EB0C00AA
:10025C00C3F1200301FA03F100F0004302D5494237
:10026C0060EB4000B0F5000F13D3B0F1807F06D3E4
:10027C0040084FEA310102F10102FE2A51D2B1F1DC
:10028C00004F40EBC25008BF20F0010040EA0300D1
:10029C007047490040EB0000013A28BFB0F5000F51
:1002AC00EDD2B0FA80FCACF1080CB2EB0C0200FA07
:1002BC000CF0AABF00EBC25052421843BCBFD04056
:1002CC001843704792F0000F81F4000106BF80F4D0
:1002DC0000000132013BB5E74FEA41037FEA226C93
:1002EC0018BF7FEA236C21D092EA030F04D092F05E
:1002FC00000F08BF0846704790EA010F1CBF002092
:10030C00704712F07F4F04D1400028BF40F00040EE
:10031C00704712F100723CBF00F50000704700F00E
:10032C00004343F0FE4040F4000070477FEA226235
:10033C0016BF08467FEA23630146420206BF5FEA06
:10034C00412390EA010F40F4800070474FF0000306
:10035C0004E000BF10F0004348BF40425FEA000CCD
:10036C0008BF704743F0964301464FF000001CE075
:10037C0050EA010208BF70474FF000030AE000BFCB
:10038C0050EA010208BF704711F0004302D5404209
:10039C0061EB41015FEA010C02BF8446014600207B
:1003AC0043F0B64308BFA3F18053A3F50003BCFA96
:1003BC008CF2083AA3EBC25310DB01FA02FC634443
:1003CC0000FA02FCC2F12002BCF1004F20FA02F24A
:1003DC0043EB020008BF20F00100704702F120023D
:1003EC0001FA02FCC2F1200250EA4C0021FA02F29E
:1003FC0043EB020008BF20EADC7070474FF0FF0CA3
:10040C001CEAD0521EBF1CEAD15392EA0C0F93EA9D
:10041C000C0F6FD01A4480EA010C400218BF5FEA3F
:10042C0041211ED04FF0006343EA501043EA5111B2
:10043C00A0FB01310CF00040B1F5000F3EBF4900AC
:10044C0041EAD3715B0040EA010062F17F02FD2AB0
:10045C001DD8B3F1004F40EBC25008BF20F0010093
:10046C00704790F0000F0CF0004C08BF49024CEAAA
:10047C00502040EA51207F3AC2BFD2F1FF0340EA3C
:10048C00C250704740F400004FF00003013A5DDCAD
:10049C0012F1190FDCBF00F000407047C2F10002EE
:1004AC00410021FA02F1C2F1200200FA02FC5FEADB
:1004BC00310040F1000053EA4C0308BF20EADC7025
:1004CC00704792F0000F00F0004C02BF400010F497
:1004DC00000F013AF9D040EA0C0093F0000F01F044
:1004EC00004C02BF490011F4000F013BF9D041EA66
:1004FC000C018FE70CEAD15392EA0C0F18BF93EA68
:10050C000C0F0AD030F0004C18BF31F0004CD8D191
:10051C0080EA010000F00040704790F0000F17BF18
:10052C0090F0004F084691F0000F91F0004F14D05E
:10053C0092EA0C0F01D142020FD193EA0C0F03D1B6
:10054C004B0218BF084608D180EA010000F00040B9
:10055C0040F0FE4040F40000704740F0FE4040F494
:10056C00400070474FF0FF0C1CEAD0521EBF1CEA33
:10057C00D15392EA0C0F93EA0C0F69D0A2EB030251
:10058C0080EA010C49024FEA402037D04FF08053EB
:10059C0043EA111143EA10130CF000408B4238BFB0
:1005AC005B0042F17D024FF4000C8B4224BF5B1ABE
:1005BC0040EA0C00B3EB510F24BFA3EB510340EA0C
:1005CC005C00B3EB910F24BFA3EB910340EA9C00BA
:1005DC00B3EBD10F24BFA3EBD10340EADC001B012A
:1005EC0018BF5FEA1C1CE0D1FD2A3FF650AF8B42CE
:1005FC0040EBC25008BF20F0010070470CF0004CDB
:10060C004CEA50207F32C2BFD2F1FF0340EAC25005
:10061C00704740F400004FF00003013A37E792F0C6
:10062C00000F00F0004C02BF400010F4000F013A24
:10063C00F9D040EA0C0093F0000F01F0004C02BF1F
:10064C00490011F4000F013BF9D041EA0C0195E788
:10065C000CEAD15392EA0C0F08D142027FF47DAF21
:10066C0093EA0C0F7FF470AF084676E793EA0C0F11
:10067C0004D14B023FF44CAF08466EE730F0004C0F
:10068C0018BF31F0004CCAD130F000427FF45CAF9F
:10069C0031F000437FF43CAF5FE700BF53B94AB978
:1006AC00002908BF00281CBF4FF0FF314FF0FF306E
:1006BC0001F0F6B8ADF1080C6DE904CE00F006F8C7
:1006CC00DDF804E0DDE9022304B070472DE9F047C2
:1006DC00089D0C46002B4ED194468C458646B2FAAA
:1006EC0082F262D94AB1C2F12003914020FA03F39D
:1006FC000CFA02FC194300FA02FE4FEA1C471FFADF
:10070C008CF6B1FBF7F44FEA1E4307FB141143EAD6
:10071C00014304FB06F199420AD91CEB030304F1D3
:10072C00FF3080F01281994240F20F81023C634409
:10073C00591A1FFA8EF3B1FBF7F007FB101143EABD
:10074C00014300FB06F69E420AD91CEB030300F1A1
:10075C00FF3180F0FC809E4240F2F9806344023805
:10076C009B1B40EA044000211DB1D3400022C5E987
:10077C000032BDE8F0878B4205D90DB1C5E9000107
:10078C0000210846F5E7B3FA83F1002946D1A342CC
:10079C0002D39042C0F0F080861A64EB0303012070
:1007AC00002DE6D0C5E90063E3E7002A40F0908015
:1007BC00A1EB0C044FEA1C481FFA8CF70121B4FB87
:1007CC00F8F64FEA1E4308FB164443EA044307FBC2
:1007DC0006F0984208D91CEB030306F1FF3402D251
:1007EC00984200F2CD8026461C1A1FFA8EF3B4FBF9
:1007FC00F8F008FB104443EA044300FB07F79F4260
:10080C0008D91CEB030300F1FF3402D29F4200F223
:10081C00B0802046DB1B40EA0640A5E7C1F120066C
:10082C008B4022FA06F71F4320FA06FC04FA01F368
:10083C0043EA0C03F44000FA01F8380C4FEA134970
:10084C00B4FBF0FE1FFA87FC00FB1E4449EA04448B
:10085C000EFB0CF9A14502FA01F20AD93C190EF172
:10086C00FF3A80F08480A14540F28180AEF1020E07
:10087C003C44A4EB09041FFA83F9B4FBF0F300FB2E
:10088C00134449EA044403FB0CFCA44507D93C1966
:10089C0003F1FF3067D2A44565D9023B3C4443EADF
:1008AC000E40A0FB0293A4EB0C049C42CE469C464B
:1008BC0051D34ED055B1B8EB0E0364EB0C0404FAD3
:1008CC0006F6CB401E43CC40C5E90064002150E73E
:1008DC00C2F1200320FA03F10CFA02FC24FA03F310
:1008EC0094400C434FEA1C4800FA02FE1FFA8CF7A6
:1008FC00B3FBF8F008FB1031230C43EA014300FB77
:10090C0007F1994208D91CEB030300F1FF362CD2F6
:10091C0099422AD9023863445B1AA4B2B3FBF8F1AA
:10092C0008FB113344EA034401FB07F3A34208D943
:10093C001CEB040401F1FF3613D2A34211D9023986
:10094C006444E41A41EA004139E70446F0E60846FB
:10095C0006E7C845AED2B9EB020E63EB070C0138C3
:10096C00A8E73146EDE7034699E73046D4E7D6468B
:10097C007FE7634402384DE70646234608460FE7F7
:10098C00023E634430E700BF03685A004CBF43F09B
:10099C00004323F000431844704700BF2DE9F8438F
:1009AC0049B34F1E044615463E464FF0000909EB6D
:1009BC00060101EBD171491004EBC1084046FFF769
:1009CC00E3FF8F4203464FEAC1000FD00830AB4221
:1009DC00204407D8FFF7D8FF0138A84208D201F10C
:1009EC000109E4E7894506D04E1EE0E7AB42F9D891
:1009FC004046BDE8F8834FF000084046BDE8F88358
:100A0C00012807D0022807D0044B00280CBF184639
:100A1C00002070470248704702487047D510000804
:100A2C00D9100008DD10000830B5214B83B0044606
:100A3C008D1E1BB301A92846AFF3008088B3019922
:100A4C002A46FFF7ABFF014658B3FFF79DFF4B68F3
:100A5C00A064012B28D0002B01F104001FDBFFF751
:100A6C0093FF002323650368E064002B0DDBFFF785
:100A7C008BFF03460020236103B030BD0D4B0E49A4
:100A8C00C91AC91018460191DAE7C3F30360FFF7DE
:100A9C00B7FF034628B10020236103B030BD01230A
:100AAC00E0E700230920E6E700230520E3E700BF89
:100ABC000000000010380008F83800080368DA0756
:100ACC0010B5044606D49B0700F1480009D500F088
:100ADC0069FC2368590709D51A070ED5DB0613D50F
:100AEC0010BD00F057FC23685907F5D404F1D00071
:100AFC0000F060FC23681A07F0D404F5A87000F02D
:100B0C0061FC2368DB06EBD404F5E870BDE810400B
:100B1C0000F09CBC092070470346006800B11844E3
:100B2C00704700BF704700BF70B504460E46316C6D
:100B3C002046FFF779FF054688B9326C626123695C
:100B4C0032462146012098470828F0D0072806D1C4
:100B5C002846316CFFF7E6FF301D00F00FFC02F069
:100B6C0021FD00BF2DE9F0470D1DD0F80C80D0F809
:100B7C001890074614460FCDADF5727D0DF10C0C97
:100B8C00ACE80F000FCDACE80F000FCDACE80F00B8
:100B9C0095E80F0002AE4FF0000E8CE80F00C6F87F
:100BAC0000E020E0336C7B614FF4F07231467AA8A0
:100BBC0002F078FD3B697AAA394650469847889BE3
:100BCC0073642146CDE9006905463B463A4601204F
:100BDC00C047044618BB4FF4F0727AA9304602F0B5
:100BEC0061FD082D19D1316C3846FFF71DFF093412
:100BFC005FFA84FA05460028D4D0B36B73643A4686
:100C0C00CDE900693B464AF010010120C04730B9DC
:100C1C0028460DF5727DBDE8F087072D05D0092516
:100C2C0028460DF5727DBDE8F0872046316CFFF744
:100C3C0079FF03A800F0A2FB406C7047F0B5CB6BBA
:100C4C000B6401F1040C0E460546BCE80F00F9B02C
:100C5C0001AC0FC4BCE80F000FC4BCE80F000FC4FC
:100C6C009CE80F004FF0FF3784E80F00009706E078
:100C7C002B696A46294698470828044608D11099DA
:100C8C002846FFF7D1FE0028F2D0092079B0F0BD3C
:100C9C006846FFF713FF062CF7D131462846FFF7BD
:100CAC0043FF00BFC160D96B8261196400221946F1
:100CBC0058E700BF70B5C66843690B64AEB90369E9
:100CCC000A4604460D46014602209847072805D0DF
:100CDC0008280FD129462046FFF726FF3046296CFD
:100CEC00FFF720FF281D00F049FB0122FFF73AFF18
:100CFC0002F058FC02F056FCC2681AB1CA6B0A64C6
:100D0C0000222FE79AE700BF704700BF83680146B7
:100D1C000BB1012018477047012910D009D883B9AD
:100D2C000F2A0ED800EB820218465368009A136003
:100D3C007047033901298CBF0220012070470846F7
:100D4C0070470220704700BF00B585B00A460023EB
:100D5C0003A900911946FFF7DFFF039805B05DF872
:100D6C0004FB00BF012910D009D883B90F2A0ED873
:100D7C00009900EB820209685160184670470339EC
:100D8C0001298CBF022001207047084670470220C1
:100D9C00704700BF10B584B0002303AC03920094DD
:100DAC000A461946FFF7DEFF04B010BD70B5D36BD1
:100DBC00136402F1040C05460C46BCE80F00ADF5BB
:100DCC000E7D0DF15C0EAEE80F00BCE80F00AEE836
:100DDC000F00BCE80F00AEE80F009CE80F004FF0CE
:100DEC00FF368EE80F00169610E0FFF7D3FF214672
:100DFC0016A8A847034616AA6946082083B9049B7F
:100E0C009847052806460CD0092809D0269968462B
:100E1C00FFF70AFE03466A460C2116A8002BE4D005
:100E2C00092616A8FFF74AFE30460DF50E7D70BD5B
:100E3C002DE9F04F9346CA6C89B00D4652F8041B4D
:100E4C00069200F0030C002B79D00C0C8DF81D4091
:100E5C000904E4B2059102EB840202212F6D8DF896
:100E6C001C10BCF1020F08BFAA6B17F001070CD0C5
:100E7C0005A9584600F084FB18B9082009B0BDE854
:100E8C00F08F092009B0BDE8F08F1668002EEFD066
:100E9C0000F008010191B246029764469946B9F1F7
:100EAC00020F48D0B2F800A0568802F10408AA6CD0
:100EBC0026F001030F2158469F18FFF745FF874284
:100ECC0037D82AF001023A44824294BF0022012210
:100EDC00730003F002030AF0010A43EA0A03012B30
:100EEC0047D0022B31D0002BCBD114B1002A40F0CB
:100EFC00C98008F10402D2F800A0BAF1000FCED1DB
:100F0C0005A95846029F00F03BFB0028B9D1002FE1
:100F1C00B3D00F215846FFF717FF0E210246584653
:100F2C00FFF738FF674A0F215846FFF733FF0720BA
:100F3C00A8E70022CCE7566802F10808B7E70902D7
:100F4C0005918DF81D30032188E7D8F8006026F054
:100F5C000043002C44D122B1019A002A5AD0002B14
:100F6C0058D0002E01DA08F10408013308EB830293
:100F7C00C1E7ECB9CAB1D8F80430D8F80020991CF4
:100F8C004FEAD2723FF47DAF05F158010133049161
:100F9C0000F08B8008F10400FFF7BEFD04AB0146A6
:100FAC002846AFF30080002857D108F10802A2E7C9
:100FBC000D215846FFF7C8FE2B6A8342F5D1AB6A68
:100FCC009845F2D14046FFF7DFFC0F210246584608
:100FDC00FFF7E0FE2A4600215846FFF7DBFEA6E7A6
:100FEC000D2158460393FFF7AFFE2A6A039B8242FA
:100FFC00B7D1AA6A9045B4D100270422C5E90B7277
:10100C004244AB626A63D8F80020BA4255DB012235
:10101C000292AAE7039408F1040A002605F1580786
:10102C001C460DE050460497FFF776FD0022014662
:10103C0004AB284601360AF1040AAFF30080E0B98C
:10104C00A642EFD10D215846FFF77EFE049BC5F852
:10105C002880C5E90803062014E704460D215846EC
:10106C00FFF772FE049E2862022C04BFEE6205F1AB
:10107C002C06C5E90968062004E72346D8F8006069
:10108C00039C6EE74046FFF77FFC08F10402044620
:10109C00AA632846AFF3008000283FF4F2AE224644
:1010AC000F215846FFF776FE41E70C4658460D21B6
:1010BC00FFF74AFE26462862DBE7581C08EB800047
:1010CC0081E700BF000000000023B1E60123AFE67A
:1010DC000223ADE62DE9F0430646C3B015461C4687
:1010EC00042900F2D180DFE801F0AC51CF2A0300D3
:1010FC00002C40F0C980102A00F2C6800368DC0680
:10110C0000F1E78020AF384600F0AAF9B46B3946FD
:10111C0000234FF0010C0CFA03F22A42204603F193
:10112C00010303D050F8042B0A600446042B01F190
:10113C000401F0D1B463384600F088F999E0032C2F
:10114C0040F0A28094B204EB1243102B4FEA1245EC
:10115C0000F29A8003681F0700F1C38020AF384665
:10116C0000F052F9B26B07EBC50154B10B46D01A23
:10117C0001EBC401E4001D5843F8045B8B42FAD127
:10118C002244B263384600F01DF972E0012C4FEA9C
:10119C00124895B271D0052C76D108EB0509B9F13E
:1011AC00200F71D8B8F10F0F72D8B9F1100F036876
:1011BC0000F29F80D90708D523F00103304643F095
:1011CC00020340F8483B00F0F1F820AF384600F03D
:1011DC00EDF8B36B002D00F0B9806D006A1E07EBC3
:1011EC00C80100250132043903EB820253F8040BC9
:1011FC0041F8040F9342F9D1002D00F0A180414633
:10120C00102938BF10216B0010396F46013B07EBDA
:10121C00C1010133043902EB830352F8040B41F88A
:10122C00040F9A42F9D1012C00F08880B8F10F0F0D
:10123C00B26302D820A800F0B5F8384600F0BAF82E
:10124C0017E00CBB806B23461FFA82FC0124371D70
:10125C0004FA03F111EA0C0F024604D052F8041BF5
:10126C0047F8231010460133102BF1D1AC0400D4F5
:10127C00B063002043B0BDE8F08308EB0503102BEE
:10128C0002D8B8F1100F14D1022043B0BDE8F0839E
:10129C00002DEED003685A075CD46F46384600F038
:1012AC008DF8B26B6B00A8F11001013B07EBC1018B
:1012BC00AFE70368DA0759D420AF384600F06EF870
:1012CC00B36B002D89D10433B363384600F062F858
:1012DC00CFE723F01003036000F5E87000F0C0F8CE
:1012EC0010E723F00803036000F5A87000F08CF8F9
:1012FC0034E7D90708D523F0010343F0020340F883
:10130C00483B00F053F83368580706D5304623F0B5
:10131C00040340F8D03B00F051F820AF384600F001
:10132C0045F8684600F04AF8C8F110025200B36B59
:10133C00A9F11005013A07EBC80153E720AFC2E74A
:10134C00012CC0D0B8F10F0FB36392D8384600F01F
:10135C0029F88EE723F0040340F8D03B6F4600F0E9
:10136C002DF8384600F02AF8B26B9BE7304623F094
:10137C00030340F8483B00F011F89DE700F13401FD
:10138C0091E838009C46A6464CF8045D90E8FF0FA7
:10139C00E54600BD90EC210B704700BF80EC210BA3
:1013AC00704700BF90EC200B704700BF80EC200B07
:1013BC00704700BFD0EC200B704700BFC0EC200B77
:1013CC00704700BFF0EC0201F0EC0211F0EC0221CE
:1013DC00F0EC0231F0EC0241F0EC0251F0EC026165
:1013EC00F0EC0271F0EC0281F0EC0291F0EC02A155
:1013FC00F0EC02B1F0EC02C1F0EC02D1F0EC02E145
:10140C00F0EC02F1704700BFE0EC0201E0EC0211DD
:10141C00E0EC0221E0EC0231E0EC0241E0EC0251A4
:10142C00E0EC0261E0EC0271E0EC0281E0EC029194
:10143C00E0EC02A1E0EC02B1E0EC02C1E0EC02D184
:10144C00E0EC02E1E0EC02F1704700BFB0FC01817E
:10145C00B0FC0191B0FC01A1B0FC01B1704700BF20
:10146C00A0FC0181A0FC0191A0FC01A1A0FC01B198
:10147C00704700BFEC4600B52DE900502DE9FF1F69
:10148C004FF000032DE90C0001A9FFF7D7FBDDF8A5
:10149C0040E012B0704700BFEC4600B52DE900509B
:1014AC002DE9FF1F4FF000032DE90C0001A9FFF7F8
:1014BC0001FCDDF840E012B0704700BFEC4600B50F
:1014CC002DE900502DE9FF1F4FF000032DE90C0012
:1014DC0001A9FFF711FCDDF840E012B0704700BF26
:1014EC00EC4600B52DE900502DE9FF1F4FF000032D
:1014FC002DE90C0001ABFFF7D5FBDDF840E012B095
:10150C00704700BFEC4600B52DE900502DE9FF1FD8
:10151C004FF000032DE90C0001AAFFF747FCDDF8A2
:10152C0040E012B0704700BF027A03467AB9427AA3
:10153C00A2B14168013A10B44272086803220C1D32
:10154C001A7202025C60000E10BC1A6070470068D0
:10155C00013A1A7202021A60000E7047B0207047EE
:10156C0000B585B0002303AA009219460C22FFF7A0
:10157C00D3FB039805B05DF804FB00BFF0E700BF98
:10158C002DE9F043064685B00D464FF0000828467D
:10159C00FFF7CAFFB028044600F0DA80070646D5EC
:1015AC0000F0F003802B5ED0B02B73D01BD8902BA7
:1015BC0000F09B80A02B12D1C34303F007034FF420
:1015CC007F621A41010702F47F6201D542F4804226
:1015DC00002319463046FFF77DFD0028D7D009209F
:1015EC0005B0BDE8F083C02B6DD1C62800F0938008
:1015FC00C72800F0B28000F0F803C02B00F0D280B6
:10160C00C82800F0DD80C928E9D12846FFF78CFFF7
:10161C00020300F00F0002F470220130024301219A
:10162C0005233046FFF756FD0028B0D0D7E78300DE
:10163C00DBB21F1D0DF10C0900231946CDF80090EB
:10164C000D223046FFF768FB039BCDF80090600637
:10165C004CBFDF1BFF1800230D22194630460397A1
:10166C00FFF780FB93E72846FFF75EFF2402204339
:10167C00B0F5004FB3D004010023A2B21946304696
:10168C00FFF728FD0028AAD114F4004F18BF4FF023
:10169C0001087CE7B12851D0B22800F0AD80B32806
:1016AC006DD000F0FC03B42B99D000F0070201328E
:1016BC00012342F4002219463046FFF70BFD0028A7
:1016CC003FF465AF8BE700F0F803D02B87D100F027
:1016DC0007020132052342F4002201213046FFF7B4
:1016EC00F9FC00283FF453AF79E700F00D030D2B04
:1016FC003FF475AF03AF002300F00F0219460097BB
:10170C003046FFF709FB002300970D22194630469F
:10171C00FFF728FB3BE72846FFF706FF020300F024
:10172C000F00013002F470220323024319463046A5
:10173C00FFF7D0FC00283FF42AAF50E72846FFF70C
:10174C00F3FE431EDBB20E2B02467FF641AF46E79B
:10175C00B8F1000F40D0002042E72846FFF7E4FE26
:10176C00431EDBB20E2B02463FF639AF0023042199
:10177C003046FFF7AFFC00283FF409AF2FE72846AF
:10178C00FFF7D2FE020300F00F00013002F47022CA
:10179C000123024319463046FFF79CFC00283FF416
:1017AC00F6AE1CE700F00F020132032342F42022B4
:1017BC0019463046FFF78EFC00283FF4E8AE0EE7E2
:1017CC002846FFF7B1FE00F0F00200F00F031032D4
:1017DC00013343EA023222E703AC434641460E2270
:1017EC0000943046FFF798FA009443460F22414686
:1017FC003046FFF7B7FAAEE700230DF10C090D22C6
:10180C001946CDF800903046FFF786FA2846FFF7C8
:10181C008BFE0206039C4FF002070BD500F07F00F5
:10182C00B840044428460394FFF77EFE030607F1F4
:10183C000707F3D400FA07F204F5017422440023DD
:10184C000392CDF800900D2219463046FFF78AFA24
:10185C009DE600BF10B5C26C536884B04FF0030C0A
:10186C0008321C0208461B0E01A9019402928DF845
:10187C000CC08DF80D30FFF783FE04B010BD00BF17
:10188C0008B5FFF77BFE806C08BD00BF08B5FFF7FD
:10189C0075FEC06CC379023300EB830008BD00BF3A
:1018AC00704700BF2DE9F04180460D4617461C4697
:1018BC0019460698FEF798FC0646A8EB0500FEF7BD
:1018CC0049FD01463046FEF799FD0646781BFEF7AA
:1018DC0041FD01463046FEF745FE2146FEF786FCEB
:1018EC00BDE8F08108B50E4900230B604B608B609E
:1018FC00CB600B820B4A136053609360D3601382EE
:10190C00094B0022DA609A605A601A60074B022277
:10191C001A705A701222064801F00CFE08BD00BF66
:10192C008C01002078010020680100206401002057
:10193C00000200202DE9F04182B04B4F4B4C3D464C
:10194C0026460FCE0FC533682B80122239464848E5
:10195C0001F0F0FD94F800C065786809454E4FF031
:10196C007E570097334640F294624FF4B67140EACA
:10197C00CC00FFF797FFDFF80081C8F80000A80142
:10198C0000F4F860A5780097334640F294624FF467
:10199C00B67140EA9500FFF785FFC8F80C006802A5
:1019AC0000F4C060E37840EA4300257900973346A1
:1019BC0040F294624FF4B67140EAD510FFF772FF13
:1019CC00C8F80400280100F4FE60657900973346DE
:1019DC0040F294624FF4B67140EA1510FFF762FFC3
:1019EC00C8F80800C5F38103013B244AD15C244BA1
:1019FC00597005F00305013D525D1A70A579E07927
:101A0C00DFF880800097334647F6FF72414640EA84
:101A1C000520FFF747FF1C4D286094F808C0607A3A
:101A2C000097334647F6FF72414640EA0C20FFF719
:101A3C0039FF686094F80AC0E07A0097334647F69D
:101A4C00FF72414640EA0C20FFF72CFFA860227B76
:101A5C000E4B9A5C2A73627B9B5C2B73A27B0C4BA8
:101A6C001A7002B0BDE8F0818C01002078010020D2
:101A7C0000020020000080BF68010020B037000881
:101A8C00640100200080FFFF54010020AC370008E7
:101A9C005001002008B5044B834200D008BD122928
:101AAC00FCD1FFF747FFF9E70002002000B583B037
:101ABC0000210191094B1A6B42F480021A631B6BD3
:101ACC0003F480030193019B0A463A2000F066FA66
:101ADC003A2000F073FA03B05DF804FB00380240C2
:101AEC00F0B58BB0002405940694079408940994DF
:101AFC0000942B4B1A6B42F001021A631A6B02F022
:101B0C0001020092009A01941A6B42F002021A63CD
:101B1C001A6B02F002020192019A02941A6B42F0C3
:101B2C0080021A631A6B02F080020292029A0394EA
:101B3C001A6B42F010021A631A6B02F01002039235
:101B4C00039A04941A6B42F020021A631B6B03F085
:101B5C0020030493049B134F22464FF40061384634
:101B6C0000F0B8FD104D22464FF48041284600F09D
:101B7C00B1FD4FF400630593012606960794089473
:101B8C0005A9384600F0A0FC4FF480430593069657
:101B9C000794089405A9284600F096FC0BB0F0BDFC
:101BAC0000380240001002400014024072B6FEE7FA
:101BBC0000B595B03022002108A801F0FAFC0023F2
:101BCC00039304930593069307930193234A116C93
:101BDC0041F080511164126C02F080520192019A12
:101BEC0002931F4B1A6842F440421A601B6803F4BC
:101BFC0040430293029B012308934FF480330993D3
:101C0C0002230E934FF480020F9206221092B422FC
:101C1C00119212930423139308A800F09FFDB0B9FE
:101C2C0000F05EFDA8B90F23039302230493002355
:101C3C0005934FF4A05306934FF48053079305215B
:101C4C0003A800F0DBFF30B915B05DF804FBFFF71B
:101C5C00ADFFFFF7ABFFFFF7A9FF00BF0038024055
:101C6C000070004008B500F027F9FFF7A1FFFFF75F
:101C7C0037FFFFF71BFF00F051F800F001F8FEE70B
:101C8C0008B5FFF72FFEFEE782B0002100910B4B49
:101C9C005A6C42F480425A645A6C02F480420092AC
:101CAC00009A01911A6C42F080521A641B6C03F07A
:101CBC0080530193019B02B0704700BF0038024073
:101CCC00FEE7FEE7FEE7FEE7FEE77047704770476A
:101CDC0008B500F00BF908BD08B5024801F040FA50
:101CEC0008BD00BF0002002008B5024800F0FEFA53
:101CFC0008BD00BFA00100200120704708B501F00D
:101D0C00A5FC162303604FF0FF3008BD08B54FF05B
:101D1C00FF31FFF7F3FFFEE77047000008B50C48F2
:101D2C000C4B03600C4B43604FF4805383600023D7
:101D3C00C3604FF4806202610C2242618361C36113
:101D4C0001F028F900B908BDFFF730FFFBE700BF31
:101D5C000002002000100140A086010030B589B0BF
:101D6C00002303930493059306930793026803F1EE
:101D7C00804303F588339A4201D009B030BD044644
:101D8C000025019503F594335A6C42F010025A6405
:101D9C005A6C02F010020192019A02951A6B42F0F1
:101DAC0002021A631B6B03F002030293029BC02313
:101DBC00039302230493032306930723079303A996
:101DCC00124800F081FB1248124B03604FF0006385
:101DDC0043608560C5604FF4806303614561856134
:101DEC00C5610562456200F089F958B9084BA363D7
:101DFC009C6300221146252000F0D0F8252000F02D
:101E0C00DDF8BAE7FFF7D2FEF0E700BF00040240AE
:101E1C00A001002040640240DFF834D00D480E4988
:101E2C000E4A002302E0D458C4500433C4188C4228
:101E3C00F9D30B4A0B4C002301E013600432A2428D
:101E4C00FBD3FFF769FF01F007FCFFF70BFF7047AF
:101E5C000000032000000020340100200439000899
:101E6C00340100201C050020FEE7000010B50446DC
:101E7C000E4B1A784FF47A73B3FBF2F30C4A1068DA
:101E8C00B0FBF3F000F0A8F868B90F2C01D90120D1
:101E9C000AE0002221464FF0FF3000F07FF8054B9E
:101EAC001C60002000E0012010BD00BF04000020D9
:101EBC00000000200800002008B50B4B1A6842F403
:101ECC0000721A601A6842F480621A601A6842F44E
:101EDC0080721A60032000F04FF80F20FFF7C6FF46
:101EEC00FFF7D2FE002008BD003C0240034A1168F7
:101EFC00034B1B780B441360704700BF4402002057
:101F0C0004000020014B1868704700BF44020020F9
:101F1C00002808DB0901C9B200F1604000F56140FE
:101F2C0080F80013704700F00F000901C9B2014B93
:101F3C001954704714ED00E000B500F00700C0F133
:101F4C00070CBCF1040F28BF4FF0040C031D062B2B
:101F5C000FD9C31E4FF0FF3E0EFA0CF021EA000120
:101F6C0099400EFA03FE22EA0E0241EA02005DF8E5
:101F7C0004FB0023EEE70000074AD36823F4E06378
:101F8C001B041B0C000200F4E060034343F0BF632E
:101F9C0043F40033D360704700ED00E010B5044605
:101FAC00054BD868C0F30220FFF7C6FF0146204658
:101FBC00FFF7AEFF10BD00BF00ED00E0002807DB0F
:101FCC0000F01F02400901239340024A42F82030DE
:101FDC00704700BF00E100E00138B0F1807F0BD208
:101FEC004FF0E0235861054AF02182F823100020BD
:101FFC00986107221A6170470120704700ED00E0DC
:10200C0030B405682C6824F480242C600468636068
:10201C008368402B05D0036899600368DA6030BC94
:10202C00704703689A600368D960F8E710B40368D6
:10203C00D9B210390B4AA2FB014212090A4CA25C1C
:10204C00C2655F2908D923F47F7323F0030304339B
:10205C008365806D10BC704723F47F7323F00303FA
:10206C008365F6E7ABAAAAAACC370008836A826913
:10207C0092B9012B0AD0022B02D00BB10020704771
:10208C00C36A13F0807F28D100207047C36AB3F174
:10209C00C07F24D000207047B2F5005F09D0022B1E
:1020AC0025D9032B25D1C36A13F0807F23D10020BF
:1020BC007047032B03D8DFE803F01404140A002044
:1020CC007047C36A13F0807F0DD100207047C36A3C
:1020DC00B3F1C07F09D00020704701207047012068
:1020EC007047012070470120704701207047012084
:1020FC0070470020704701207047000070B50446FF
:10210C00FFF700FF002C5BD00546022384F8353026
:10211C00002384F834302268136823F00103136021
:10212C0023681A6812F0010F0AD0FFF7EBFE431B6D
:10213C00052BF5D920236365032084F8350070BD89
:10214C001A68204911406268A0680243E0680243A3
:10215C002069024360690243A0690243E0690243BB
:10216C00206A02430A43616A04291ED01A60266859
:10217C00756925F00705636A1D43042B07D1A36A13
:10218C001D43E36A1BB12046FFF770FF90B97561E0
:10219C002046FFF74BFFE26D3F2393408360002006
:1021AC006065012384F83530C9E7E16A206B01438F
:1021BC000A43DBE740236365012084F83500BEE762
:1021CC000120BCE73F8010F038B50446856D90F8CF
:1021DC00340001282BD0012084F8340094F8350009
:1021EC00C0B2012804D0002384F83430022038BD5A
:1021FC00022084F83500002060652046FFF700FFC0
:10220C00E26D3F239340AB602268136843F01603E2
:10221C001360236C23B12268136843F00803136026
:10222C002268136843F0010313600020DFE70220EB
:10223C00DDE770B50446866DFFF764FE94F8353023
:10224C00DBB2022B06D080236365002384F8343084
:10225C00012070BD05462268136823F01603136035
:10226C002268536923F080035361236CE3B1226825
:10227C00136823F0080313602268136823F001032A
:10228C00136023681B6813F0010F11D0FFF73AFE9F
:10229C00431B052BF5D920236365032084F83500F7
:1022AC00002384F83430D4E7A36C002BDFD1E3E7B0
:1022BC00E26D3F239340B360012384F83530002056
:1022CC0084F83400C5E790F83530DBB2022B03D02C
:1022DC008023436501207047052380F83530026860
:1022EC00136823F00103136000207047F0B583B02E
:1022FC00044600230193724B1D68724BA3FB0535FA
:10230C00AD0A876D3E68C26D08239340334210D0EE
:10231C0003681A6812F0040F0BD01A6822F004023A
:10232C001A60C26D08239340BB60436D43F00103F8
:10233C004365E26D01239340334209D02268526910
:10234C0012F0800F04D0BB60636D43F00203636531
:10235C00E26D04239340334209D02268126812F0D4
:10236C00020F04D0BB60636D43F004036365E26D40
:10237C0010239340334224D02268126812F0080FC5
:10238C001FD0BB6023681A6812F4802F0DD01B6815
:10239C0013F4002F04D1236C9BB12046984710E016
:1023AC00A36C73B1204698470BE01A6812F4807F37
:1023BC0003D11A6822F008021A60236C0BB1204674
:1023CC009847E26D20239340334255D0226812681F
:1023DC0012F0100F50D0BB6094F83530DBB2052BE7
:1023EC000ED023681A6812F4802F33D01B6813F4B4
:1023FC00002F2AD1636C002B3ED0204698473BE03F
:10240C002268136823F0160313602268536923F0C3
:10241C0080035361236CA3B12268136823F0080373
:10242C001360E26D3F239340BB60012384F8353089
:10243C00002384F83430236D002B3FD0204698477E
:10244C003CE0A36C002BE7D1EBE7E36BA3B1204698
:10245C00984711E01A6812F4807F09D11A6822F0AB
:10246C0010021A60012384F83530002384F83430CC
:10247C00E36B0BB120469847636DFBB1636D13F0B2
:10248C00010F17D0052384F835302268136823F028
:10249C0001031360019B01330193AB4204D8236801
:1024AC001B6813F0010FF5D1012384F8353000239C
:1024BC0084F83430E36C0BB12046984703B0F0BD80
:1024CC0000000020B5814E1B00230F2B00F2F98079
:1024DC0030B583B069E085684FEA430E032404FAF3
:1024EC000EF425EA0405CC6804FA0EF42C4384603F
:1024FC00446824EA02044A68C2F300129A40224358
:10250C00426060E0DC08083450F8242003F0070532
:10251C00AD004FF00F0E0EFA05FE22EA0E0E0A6900
:10252C00AA4042EA0E0240F8242060E0092200E0B2
:10253C00002202FA0EF22A430234624D45F824209E
:10254C00614A94686FEA0C0224EA0C05D1F804E0A5
:10255C001EF4801F01D04CEA04055B4CA560E468B6
:10256C0002EA0405D1F804E01EF4001F01D04CEA85
:10257C000405554CE560646802EA0405D1F804E0F2
:10258C001EF4003F01D04CEA04054F4C65602468F2
:10259C0022404D6815F4803F01D04CEA04024A4CAD
:1025AC00226001330F2B00F28A8001229A400C68C2
:1025BC0004EA020C32EA0404F3D14C6804F003047C
:1025CC00013C012C87D94A6802F00302032A09D086
:1025DC00C4685D000322AA4024EA02048A68AA4067
:1025EC002243C2604A6802F00302022A8AD00468BD
:1025FC004FEA430E032202FA0EF224EA02044A685E
:10260C0002F0030202FA0EF2224302604A6812F44C
:10261C00403FC6D0002201922C4A546C44F48044B2
:10262C005464526C02F480420192019A9C08A51CDD
:10263C00244A52F8255003F0030E4FEA8E0E0F2257
:10264C0002FA0EF225EA0205214A90423FF470AFDD
:10265C0002F58062904222D002F58062904220D036
:10266C0002F5806290421ED002F5806290421CD02E
:10267C0002F5806290421AD002F58062904218D026
:10268C0002F58062904216D002F58062904214D01E
:10269C0002F5806290423FF449AF0A2249E70122D9
:1026AC0047E7022245E7032243E7042241E70522DC
:1026BC003FE706223DE707223BE7082239E703B054
:1026CC0030BD704700380140003C014000380240EA
:1026DC00000002400AB181617047090481617047B2
:1026EC0010B582B000230193194B1A6C42F0805242
:1026FC001A641B6C03F080530193019B154B012250
:10270C001A64FFF7FFFB0446134B5B6813F4803F1E
:10271C0008D1FFF7F7FB001BB0F57A7FF4D9032043
:10272C0002B010BD0B4B01225A64FFF7EBFB0446C1
:10273C00094B5B6813F4003F07D1FFF7E3FB001B69
:10274C00B0F57A7FF4D90320EAE70020E8E700BF70
:10275C000038024000000E4200700040002800F0DB
:10276C00E08170B582B00446036813F0010F3BD0D2
:10277C009F4B9B6803F00C03042B2CD09C4B9B6849
:10278C0003F00C03082B21D06368B3F5803F4FD0C6
:10279C00B3F5A02F52D0964B1A6822F480321A60EF
:1027AC001A6822F480221A606368002B50D0FFF75D
:1027BC00A9FB05468E4B1B6813F4003F14D1FFF7A1
:1027CC00A1FB401B6428F5D90320B1E1884B5B6861
:1027DC0013F4800FD8D0864B1B6813F4003F03D042
:1027EC006368002B00F09F81236813F0020F54D014
:1027FC007F4B9B6813F00C0F3ED07D4B9B6803F016
:10280C000C03082B33D0E368002B68D0794B0122E2
:10281C001A60FFF777FB0546754B1B6813F0020F28
:10282C0054D1FFF76FFB401B0228F5D903207FE141
:10283C006F4A136843F480331360B5E76C4B1A6826
:10284C0042F480221A601A6842F480321A60ABE7B4
:10285C00FFF758FB0546664B1B6813F4003FC3D0CB
:10286C00FFF750FB401B6428F5D9032060E1604B57
:10287C005B6813F4800FC6D15D4B1B6813F0020F1D
:10288C0003D0E368012B40F05081594A136823F0C0
:10289C00F803216943EAC1031360236813F0080F9E
:1028AC0042D063696BB3534B0122C3F8802EFFF700
:1028BC0029FB05464E4B5B6F13F0020F34D1FFF72B
:1028CC0021FB401B0228F5D9032031E1484A13684B
:1028DC0023F0F803216943EAC1031360DDE7454B9C
:1028EC0000221A60FFF70EFB0546414B1B6813F0E4
:1028FC00020FD2D0FFF706FB401B0228F5D90320AC
:10290C0016E13C4B0022C3F8802EFFF7FBFA05467C
:10291C00374B5B6F13F0020F06D0FFF7F3FA401B37
:10292C000228F5D9032003E1236813F0040F77D0B4
:10293C002F4B1B6C13F0805F33D1002301932C4B76
:10294C001A6C42F080521A641B6C03F08053019392
:10295C00019B0125284B1B6813F4807F23D0A368AF
:10296C00012B34D0052B38D0214B1A6F22F00102E9
:10297C001A671A6F22F004021A67A368002B3DD065
:10298C00FFF7C0FA06461A4B1B6F13F0020F46D125
:10299C00FFF7B8FA801B41F288339842F3D9032031
:1029AC00C6E00025D6E7144A136843F4807313601D
:1029BC00FFF7A8FA0646104B1B6813F4807FCED1A4
:1029CC00FFF7A0FA801B0228F5D90320B0E0084AD3
:1029DC00136F43F001031367CFE7054B1A6F42F0F7
:1029EC0004021A671A6F42F001021A67C5E700BFAA
:1029FC00003802400000474200700040FFF782FAA6
:102A0C000646524B1B6F13F0020F08D0FFF77AFAF1
:102A1C00801B41F288339842F3D9032088E0EDB94A
:102A2C00A369002B00F08380484A926802F00C02E4
:102A3C00082A51D0022B17D0454B00221A66FFF7FB
:102A4C0061FA0446414B1B6813F0007F42D0FFF73C
:102A5C0059FA001B0228F5D9032069E03B4A136C94
:102A6C0023F080531364DBE7394B00221A66FFF71F
:102A7C0049FA0546354B1B6813F0007F06D0FFF76B
:102A8C0041FA401B0228F5D9032051E0E369226A80
:102A9C001343626A43EA8213A26A5208013A43EA78
:102AAC000243E26A43EA0263284A5360284B01223C
:102ABC001A66FFF727FA0446244B1B6813F0007FB5
:102ACC0006D1FFF71FFA001B0228F5D903202FE0CF
:102ADC0000202DE000202BE0012B2BD01B4B5B6842
:102AEC0003F48001E269914226D103F03F02216A8E
:102AFC008A4223D1616A47F6C0721A40B2EB811F39
:102B0C001ED103F44031A26A5208013AB1EB024FD4
:102B1C0018D103F07063E26AB3EB026F14D100209A
:102B2C0006E001207047012002E0012000E00020B7
:102B3C0002B070BD0120FBE70120F9E70120F7E7A7
:102B4C000120F5E70120F3E70120F1E7003802400E
:102B5C000000474208B5264B9B6803F00C03042B7E
:102B6C0041D0082B41D1224B5A6802F03F025B68DE
:102B7C0013F4800F12D01E4B5968C1F388111D48F5
:102B8C000023A1FB0001FDF789FD194B5B68C3F322
:102B9C00014301335B00B0FBF3F027E0144B5868A2
:102BAC00C0F388104FEA401CBCEB000C6EEB0E0E11
:102BBC004FEA8E1343EA9C634FEA8C11B1EB0C0184
:102BCC0063EB0E03DB0043EA5173C90011EB000CFD
:102BDC0043F10003990200234FEA8C2041EA9C51F7
:102BEC00FDF75CFDD1E7034800E0034808BD00BFDA
:102BFC0000380240001BB7000024F400002800F04D
:102C0C009B8070B50D4604464F4B1B6803F00F03B9
:102C1C008B4208D2CBB24C4A1370136803F00F03EB
:102C2C008B4240F08B80236813F0020F17D013F007
:102C3C00040F04D0454A936843F4E053936023682F
:102C4C0013F0080F04D0414A936843F46043936037
:102C5C003E4A936823F0F003A1680B43936023680A
:102C6C0013F0010F32D06368012B21D09A1E012A78
:102C7C0025D9364A126812F0020F61D033498A689E
:102C8C0022F0030213438B60FFF73CF906462F4BEF
:102C9C009B6803F00C036268B3EB820F16D0FFF74E
:102CAC0031F9801B41F288339842F0D9032042E07D
:102CBC00264A126812F4003FE0D101203BE0234A7F
:102CCC00126812F0007FD9D1012034E01E4B1B6832
:102CDC0003F00F03AB4207D9EAB21B4B1A701B6807
:102CEC0003F00F03AB422DD1236813F0040F06D071
:102CFC00164A936823F4E053E1680B43936023680E
:102D0C0013F0080F07D0114A936823F4604321692C
:102D1C0043EAC1039360FFF71DFF0C4B9B68C3F3A1
:102D2C0003130B4AD35CD8400A4B18600A4B186843
:102D3C00FFF79CF8002070BD012070470120FAE7D6
:102D4C000120F8E70120F6E7003C02400038024081
:102D5C00BC3700080000002008000020014B186858
:102D6C00704700BF0000002008B5FFF7F7FF044BC9
:102D7C009B68C3F38223034AD35CD84008BD00BFD1
:102D8C0000380240B437000808B5FFF7E7FF044BE2
:102D9C009B68C3F34233034AD35CD84008BD00BFE1
:102DAC0000380240B4370008026802F10C0353E803
:102DBC00003F23F0C0030C3242E800310029F3D16C
:102DCC00202380F83D307047026802F10C0353E871
:102DDC00003F23F490730C3242E800310029F3D108
:102DEC00026802F1140353E8003F23F0010314328C
:102DFC0042E800310029F3D1036B012B05D02023CD
:102E0C0080F83E30002303637047026802F10C0324
:102E1C0053E8003F23F010030C3242E80031002944
:102E2C00F3D1ECE790F83D30DBB2212B01D002203E
:102E3C0070478368B3F5805F17D0036A5A1C02622F
:102E4C001A7803685A60C38C9BB2013B9BB2C38453
:102E5C004BB90268D36823F08003D3600268D3684F
:102E6C0043F04003D360002070470369002BE4D18A
:102E7C00036A1B880268C3F308035360036A0233B6
:102E8C000362E0E710B504460268136923F440536B
:102E9C00C1680B431361836802691A4343691A437F
:102EAC00C3691A430168CB6823F4164323F00C035F
:102EBC001343CB600268536923F4407381690B435D
:102ECC0053610368314A934206D002F58062934203
:102EDC0002D0FFF749FF01E0FFF756FFE369B3F5B6
:102EEC00004F29D00021031849411B1841F1000162
:102EFC00C90041EA5371DB00181863684FEA83027A
:102F0C004FEA937341F10001FDF7C8FB204AA2FB85
:102F1C0000314909642303FB11031B013233A2FB6B
:102F2C0003235B0903F0F00202EB011203F00F0321
:102F3C00216813448B6010BD0023021843EB03017E
:102F4C00121841F10001C90041EA5271D200101867
:102F5C0041F10001626892185B41FDF79FFB0C4A3E
:102F6C00A2FB00314909642303FB1103DB0032335C
:102F7C00A2FB03235B095A0002F4F87202EB011264
:102F8C0003F00703216813448B60D4E70010014061
:102F9C001F85EB5158B310B5044690F83D300BB378
:102FAC00242384F83D302268D36823F40053D36083
:102FBC002046FFF767FF2268136923F490431361DF
:102FCC002268536923F02A0353612268D36843F4BF
:102FDC000053D36000202064202384F83D3084F813
:102FEC003E3010BD80F83C30FEF7B8FED8E701202B
:102FFC007047704708B50168CA6822F04002CA6081
:10300C00202280F83D20FFF7F4FF002008BD704718
:10301C007047704710B5846B23685A6994F83D303B
:10302C00DBB2212B10D023685A6902F0400294F8CD
:10303C003E30DBB2222B11D0236C43F010032364FF
:10304C002046FFF7E6FF10BD02F08002002AEAD00E
:10305C000023E3842046FFF7A7FEE4E7002AEBD029
:10306C000023E3852046FFF7AFFEE5E708B5806B4C
:10307C000023C385C384FFF7CCFF08BD90F83E3016
:10308C00DBB2222B67D18368B3F5805F4DD0826AA7
:10309C00B3F5805F04D0002B54D10369002B51D1C0
:1030AC0003685B681370836A01338362C38D9BB2C0
:1030BC00013B9BB2C385002B4FD100B583B0026896
:1030CC00D36823F02003D3600268D36823F48073A1
:1030DC00D3600268536923F001035361202380F805
:1030EC003E30036B012B33D100230363026802F1E2
:1030FC000C0353E8003F23F010030C3242E800317C
:10310C000029F3D103681A6812F0100F06D00022C0
:10311C0001921A6801925B680193019B818DFEF705
:10312C00B9FC002003B05DF804FB0269002AAED1A3
:10313C00826A03685B68C3F308031380836A0233F3
:10314C008362B3E703685B6803F07F031370AAE73D
:10315C00FFF75DFFE5E70220704700207047000095
:10316C0010B582B0044602681368D068516913F038
:10317C000F0F09D113F0200F0CD010F0200F09D035
:10318C002046FFF77BFF16E011F0010115D110F47A
:10319C00907F12D1216B012979D013F0800F03D0CD
:1031AC0010F0800F40F0108113F0400F03D010F09E
:1031BC00400F40F00D8102B010BD13F0010F06D08E
:1031CC0010F4807F03D0226C42F00102226413F0D1
:1031DC00040F04D019B1226C42F00202226413F0E5
:1031EC00020F04D019B1226C42F00402226413F0D5
:1031FC00080F07D010F0200F00D119B1226C42F04B
:10320C0008022264226C002AD5D013F0200F02D0C1
:10321C0010F0200F29D123685B6903F04003226C66
:10322C0012F0080F00D163B32046FFF7CDFD2368E1
:10323C005B6913F0400F20D0226802F1140353E8AD
:10324C00003F23F04003143242E800310029F3D14F
:10325C00A36B73B1604A1A65A06BFFF734F80028B2
:10326C00A9D0A06B036D9847A5E72046FFF706FF92
:10327C00D1E72046FFF7CDFE9DE72046FFF7C9FEBC
:10328C0099E72046FFF7C5FE0023236493E713F06C
:10329C00100F82D010F0100F3FF47FAF002301937A
:1032AC001368019353680193019B536913F0400F0A
:1032BC0050D0A26B13685B689BB2002B3FF47BAFC2
:1032CC00A18D99427FF677AFE385D369B3F5807F03
:1032DC0037D0226802F10C0353E8003F23F48073CB
:1032EC000C3242E800310029F3D1226802F11403B8
:1032FC0053E8003F23F00103143242E80031002967
:10330C00F3D1226802F1140353E8003F23F0400389
:10331C00143242E800310029F3D1202384F83E30E6
:10332C0000232363226802F10C0353E8003F23F0CF
:10333C0010030C3242E800310029F3D1A06BFEF7E8
:10334C0078FFA18DE38D9BB2C91A89B22046FEF796
:10335C00A1FB30E7A18DE38D9BB2C91A89B2E38D35
:10336C009BB2002B3FF427AF00293FF424AF226817
:10337C0002F10C0353E8003F23F490730C3242E843
:10338C0000300028F3D1226802F1140353E8003F07
:10339C0023F00103143242E800300028F3D120233B
:1033AC0084F83E3000232363226802F10C0353E8B7
:1033BC00003F23F010030C3242E800300028F3D118
:1033CC002046FEF767FBF6E62046FFF72BFDF2E6FC
:1033DC002046FFF70FFEEEE67930000808B5806B4B
:1033EC00036B012B02D0FFF713FE08BD818D49083A
:1033FC00FEF750FBF9E708B50346806B1B681B68AA
:10340C0013F4807F2BD10023C385026802F10C03D7
:10341C0053E8003F23F480730C3242E8003100295A
:10342C00F3D1026802F1140353E8003F23F00103C7
:10343C00143242E800310029F3D1026802F114037E
:10344C0053E8003F23F04003143242E800310029D6
:10345C00F3D1202380F83E30036B012B05D0036B96
:10346C00012B0FD0FFF7D3FD08BD026802F10C034E
:10347C0053E8003F23F010030C3242E800310029DE
:10348C00F3D1ECE7818DFEF705FBEDE730B583B0AA
:10349C00044613468162828500250564222280F849
:1034AC003E20826B2048D063A26B20481064A26B34
:1034BC001F48D064A26B156520680A46011DA06BDD
:1034CC00FEF782FE019523681A6801925B680193EE
:1034DC00019B84F83C5023695BB1226802F10C0318
:1034EC0053E8003F43F480730C3242E8003100296A
:1034FC00F3D1226802F1140353E8003F43F00103B7
:10350C00143242E800310029F3D1226802F114038D
:10351C0053E8003F43F04003143242E800310029E5
:10352C00F3D1002003B030BD03340008E9330008A8
:10353C002130000890F83E30DBB2202B29D110B599
:10354C0082B0044639B342B390F83C30012B27D0FB
:10355C00012380F83C300363FFF798FFF0B9236B2D
:10356C00012B01D0012019E00023019323681A6874
:10357C0001925B680193019B226802F10C0353E8F2
:10358C00003F43F010030C3242E800310029F3D124
:10359C0004E002207047012000E0012002B010BDC1
:1035AC000220FBE708B5062000F034F80120FEF7F6
:1035BC00ADFB02440346934200D1704703F8011B54
:1035CC00F9E71F2938B505460C4604D916230360C4
:1035DC004FF0FF3038BDD0F8182112B152F821301D
:1035EC004BB9284600F030F8224601462846BDE883
:1035FC00384000F017B8012B0AD0591C03D1162300
:10360C0003600120E6E7002142F824102046984789
:10361C000020DFE7024B01461868FFF7D2BF00BF5E
:10362C000C00002038B5074D00230446084611460F
:10363C002B60FEF763FB431C02D12B6803B12360A4
:10364C0038BD00BF80030020FEF756BB014B186845
:10365C00704700BF0C00002070B50D4D0D4C641B65
:10366C00A4100026A64209D10B4D0C4C00F08CF88E
:10367C00641BA4100026A64205D170BD55F8043B6E
:10368C0098470136EEE755F8043B98470136F2E7C8
:10369C00F8380008F8380008F83800080039000835
:1036AC00704770470A44914200F1FF3300D17047D4
:1036BC0010B511F8014B03F8014F9142F9D110BD2F
:1036CC00024B13B1024800F005B87047000000002F
:1036DC00ED360008002301461A46184600F014B8CF
:1036EC0038B5074D074C641BA4101CB9BDE8384015
:1036FC0000F050B8013C55F824309847F5E700BF6E
:10370C0000390008043900082DE9F047DFF86CA0F7
:10371C000646DAF8000098460F469146FFF7C0FFC0
:10372C00174B1C680CB9174C1C606568DAF8000064
:10373C001F2D05DDFFF7B5FF4FF0FF30BDE8F0871B
:10374C009EB104EB85010122C1F88890D4F8883130
:10375C00AA401343C4F88831022EC1F8088102BF75
:10376C00D4F88C311343C4F88C316B1C0235636074
:10377C0044F82570FFF795FF0020DFE730010020AB
:10378C00880300208C030020F8B500BFF8BC08BCEF
:10379C009E467047F8B500BFF8BC08BC9E46704703
:1037AC0000010000000102000000000001020304FF
:1037BC0000000000000000000102030406070809D5
:0837CC0000061016000610169D
:1037D40008B10181B0B000840000000008B101818B
:1037E400B0B000840000000008B10181B0B00084D2
:1037F4000000000008B10181B0B0008400000000A6
:0C38040008B10181B0B000840000000099
:10381000C8CEFF7F010000001CD2FF7FB0A902804C
:10382000A8D2FF7FB0B0A880F8D2FF7F01000000CF
:1038300004D3FF7FB0B0AA8038D3FF7FAE71B280CF
:1038400004D4FF7F0100000000D4FF7FAB3F38802D
:1038500060D4FF7F0100000068D4FF7FB0B0AA8071
:10386000A4D4FF7F0100000050D5FF7FAA0DB280D5
:10387000CCD5FF7FB0AF08805CD8FF7F010000008F
:1038800060D8FF7FAD3F028000DBFF7F01000000BA
:10389000DCDCFF7F00840480F0DCFF7F010000009F
:1038A000ECDCFF7FB0AD0480B8DFFF7FB0A8038001
:1038B000DCDFFF7F44FFFF7FE0DFFF7F48FFFF7F0C
:1038C000ECDFFF7F0100000028E0FF7F08FFFF7FA3
:1038D00070E0FF7FB0AC0180C8E1FF7F04FFFF7F95
:1038E000D8E1FF7F01000000A4E3FF7F00FFFF7F1E
:0838F000A4E3FF7F01000000CA
:0838F800CD360008D1010008E3
:04390000AD0100080D
:103904000024F4000100000010000000100000205A
:103914000000000048020020B0020020180300202C
:103924000000000000000000000000000000000093
:103934000000000000000000000000000000000083
:103944000000000000000000000000000000000073
:103954000000000000000000000000000000000063
:103964000000000000000000000000000000000053
:103974000000000000000000000000000000000043
:103984000000000000000000000000000000000033
:103994000000000000000000000000000000000023
:1039A4000000000000000000010000000000000012
:1039B4000E33CDAB34126DE6ECDE05000B000000D7
:1039C40000000000000000000000000000000000F3
:1039D40000000000000000000000000000000000E3
:1039E40000000000000000000000000000000000D3
:1039F40000000000000000000000000000000000C3
:103A040000000000000000000000000000000000B2
:103A140000000000000000000000000000000000A2
:103A24000000000000000000000000000000000092
:043A340084030020E7
:0400000508001E25AC
:00000001FF
